000000098745632101234EMPRESA1                                0000000000099999999999
000000000000000000000EMPRESA2                                1111111111188888888888
000000033247743000110GLAXOSMITHKLINE BRASIL LTDA.            2222222222277777777777
000000098745632101234HBSIS                                   6666666666633333333333
000000000005632101234AMBEV                                   7777777777722222222222

