0000001PROFOX INFORMATICA                      002GRAZIELE TEIXEIRA DA SILVA              00895874493
0000002TIM S.A.                                002GRAZIELE TEIXEIRA DA SILVA              00946021201
0000003SBF COMERCIO DE PRODUTOS ESPORTIVOS     002GRAZIELE TEIXEIRA DA SILVA              00946411871
0000004AQUI E BARATO COMERCIO DE ELETRONICOS   002GRAZIELE TEIXEIRA DA SILVA              00637006766
0000005CHIESE FARMACEUTICA LTDA.               001WILKSON SILVA HENRIQUE                  00388553394
0000006GLAXOSMITHKLINE BRASIL LTDA.            003MATHEUS AUGUSTO                         00000000000
