00011111111111ITALO SILVA HENRIQUE                    0000000000099999999999
00000000000000THIAGO SILVEIRA                         1111111111188888888888
00064439867090MATHEUS AUGUSTO                         2222222222277777777777
00004563210124JORGE MARTIS DE SOUZA                   3333333333366666666666
00074563210134JULIA HELENA DA SILVA                   4444444444455555555555